S012000044656275672F736E616B652E733139BA
S315200000000248854600F0A6FAFEE7C04600C0012059
S31520000010F0DF7047C046F2DF7047C046F1DF704719
S31520000020C046F3DF7047C04680B500AF0A4B1822A2
S315200000301A600A4BAA22D2051A60084B00229A801F
S31520000040064BAA221204DA60044BFF2212069A609B
S31520000050C046BD4680BDC04630380240000C024036
S3152000006080B500AF0C4B00221A600C4B29221A6077
S315200000700B4B00221A60084B05221A60C046064B1D
S315200000801A6880235B021340F9D0034B00221A60C2
S31520000090C046BD4680BDC04610E000E014E000E04A
S315200000A018E000E080B584B000AF78600DE0002352
S315200000B0FB6004E0FFF7D4FFFB680133FB60FB68BD
S315200000C0032BF7DD7B68013B7B607B68002BEED141
S315200000D0C046C046BD4604B080BD80B582B000AFE4
S315200000E0786005E06420FFF7DDFF7B68013B7B60DD
S315200000F07B68002BF6D1C046C046BD4602B080BD07
S3152000010080B582B000AF78607B68042B1BD07B68FB
S31520000110042B1CD87B68032B11D07B68032B16D8A5
S315200001207B68012B03D07B68022B04D00FE00C4B9D
S3152000013010225A750FE00A4B20225A750BE0084B05
S3152000014040225A7507E0064B80225A7503E0044B7D
S3152000015000225A75C046C046BD4602B080BDC04684
S31520000160000C024080B582B000AF124AFB1D527CC3
S315200001701A70FB1D1B780822134001D0042315E0BA
S31520000180FB1D1B780422134001D003230EE0FB1D28
S315200001901B780222134001D0022307E0FB1D1B78A7
S315200001A00122134001D0012300E000231800BD46A0
S315200001B002B080BD000C024090B587B000AF3B0076
S315200001C0164A13CA13C312681A6001237B6119E009
S315200001D07B691800FFF794FFFFF7C4FF03003B611C
S315200001E03B69002B0BD00020FFF78AFF7B69013B80
S315200001F09A003B69013BD3183A00D35C09E07B693E
S3152000020001337B617B69042BE2DD0020FFF778FF59
S31520000210FF231800BD4607B090BDC046D408002075
S3152000022080B582B000AF7860396002231800BD46E1
S3152000023002B080BD90B587B000AF78607B681B6840
S315200002401B683B6100237B6132E07B681A687B690F
S3152000025004335B00D318043319787B68DB68DAB281
S31520000260184B1B68DBB25343DAB20F203B188A18AF
S315200002701A707B681A687B6904335B00D3180533D0
S3152000028019787B681B69DAB20E4B1B68DBB25343C5
S31520000290DAB20E243B198A181A703B181A783B19C1
S315200002A01B7819001000FFF7B6FE7B6901337B61CE
S315200002B07A693B699A42C8DBC046C046BD4607B04C
S315200002C090BDC046F807002090B587B000AF786093
S315200002D07B681B681B683B6100237B6132E07B687F
S315200002E01A687B6904335B00D318043319787B685A
S315200002F0DB68DAB2184B1B68DBB25343DAB20F2045
S315200003003B188A181A707B681A687B6904335B006D
S31520000310D318053319787B681B69DAB20E4B1B6834
S31520000320DBB25343DAB20E243B198A181A703B18F3
S315200003301A783B191B7819001000FFF772FE7B69AB
S3152000034001337B617A693B699A42C8DBC046C04665
S31520000350BD4607B090BDC046F807002080B584B0E2
S3152000036000AFF860B9607A60FB68BA685A60FB68CB
S315200003707A689A60C046BD4604B080BD80B584B018
S3152000038000AF78607B681800FFF79EFF7B681B68CC
S315200003901B68FB607B68DA687B685B68D2187B68C1
S315200003A0DA607B681A697B689B68D2187B681A6159
S315200003B07B681800FFF73EFFC046BD4604B080BDEF
S315200003C080B584B000AF78607B681800FFF77CFFAB
S315200003D07B681B681B68FB60134B1A68134B1B68F2
S315200003E01900100000F018F9030019000020FFF78B
S315200003F017FF02007B68DA600B4B1A680B4B1B68F1
S315200004001900100000F008F9030019000020FFF77A
S3152000041007FF02007B681A617B681800FFF70AFF56
S31520000420C046BD4604B080BDF0070020F807002076
S3152000043080B588B000AF786039607B68DB687B6107
S315200004407B681B693B613B68DB68FB603B681B691B
S31520000450BB600023FB6140E00023BB6134E07B6886
S315200004601A68FB6904335B00D31804331B781A001F
S315200004707B69D2183B681968BB6904335B00CB18CB
S3152000048004331B781900FB68CB189A4219D17B6874
S315200004901A68FB6904335B00D31805331B781A00EE
S315200004A03B69D2183B681968BB6904335B00CB18DB
S315200004B005331B781900BB68CB189A4201D101235A
S315200004C012E0BB690133BB613B681B681B68BA69D4
S315200004D09A42C4DBFB690133FB617B681B681B689E
S315200004E0FA699A42B8DB00231800BD4608B080BDE1
S315200004F080B582B000AF786039607B68DA683B6887
S31520000500DB689A4207D17B681A693B681B699A4265
S3152000051001D101231AE03B68DB68002B13DD3B6821
S31520000520DA683B681B685B68D318802B0BDC3B685A
S315200005301B69002B07DD3B681A693B681B689B68B3
S31520000540D318402B01DD012300E000231800BD460F
S3152000055002B080BD90B585B000AF2D4BFB602D4B12
S31520000560BB60FFF761FDFFF753FDFFF757FDFB6803
S31520000570DB69FA6810009847BB68DB69BA68100027
S315200005809847FB685B69FA6810009847FC1DFFF7DF
S3152000059013FE03002370FB1D1B78082B1FD025DCC0
S315200005A0062B05D022DC022B11D0042B07D01DE010
S315200005B0BB681B6AB86800220121984716E0BB6811
S315200005C01B6A01225142B868002298470EE0BB6898
S315200005D01B6A01225242B8680021984706E0BB6890
S315200005E01B6AB868012200219847C046BA68FB6892
S315200005F011001800FFF77CFF031E04D0FB68DB68A0
S31520000600DA1CFB68DA600120FFF767FDB4E7C04615
S31520000610B00800204408002003460B437FD4002264
S3152000062043088B4274D303098B425FD3030A8B4260
S3152000063044D3030B8B4228D3030C8B420DD3FF22CA
S31520000640090212BA030C8B4202D31212090265D098
S31520000650030B8B4219D300E0090AC30B8B4201D34B
S31520000660CB03C01A5241830B8B4201D38B03C01A92
S315200006705241430B8B4201D34B03C01A5241030B09
S315200006808B4201D30B03C01A5241C30A8B4201D3BA
S31520000690CB02C01A5241830A8B4201D38B02C01A65
S315200006A05241430A8B4201D34B02C01A5241030ADC
S315200006B08B4201D30B02C01A5241CDD2C3098B42C1
S315200006C001D3CB01C01A524183098B4201D38B013E
S315200006D0C01A524143098B4201D34B01C01A5241E1
S315200006E003098B4201D30B01C01A5241C3088B4226
S315200006F001D3CB00C01A524183088B4201D38B0011
S31520000700C01A524143088B4201D34B00C01A5241B2
S31520000710411A00D201465241104670475DE0CA0F89
S3152000072000D04942031000D34042534000229C4649
S3152000073003098B422DD3030A8B4212D3FC22890153
S3152000074012BA030A8B420CD3890192118B4208D329
S31520000750890192118B4204D389013AD0921100E08B
S315200007608909C3098B4201D3CB01C01A524183099F
S315200007708B4201D38B01C01A524143098B4201D3CC
S315200007804B01C01A524103098B4201D30B01C01AF7
S315200007905241C3088B4201D3CB00C01A5241830871
S315200007A08B4201D38B00C01A5241D9D243088B42C7
S315200007B001D34B00C01A5241411A00D2014663466A
S315200007C052415B10104601D34042002B00D54942CE
S315200007D0704763465B1000D3404201B5002000F00D
S315200007E005F802BD0029F8D016E770477047C046C5
S315200007F08000000040000000040000000C00000003
S3152000080004000000040000000000010002000300B4
S315200008100001030100020302000301030203030394
S3152000082000000000000000000000000000000000A2
S315200008300000000000000000000000000000000092
S3152000084000000000FC07002000000000000000005F
S31520000850050000000200000035020020C902002029
S315200008607D0300205D0300200C000000070000002F
S315200008700100000000010002010001010102010344
S31520000880020002010202020303010302000000002B
S315200008900000000000000000000000000000000032
S315200008A00000000000000000000000000000000022
S315200008B0680800200400000001000000010000007C
S315200008C00300000035020020C9020020C1030020D9
S315200008D05D0300200102030A0405060B0708090C24
S309200008E00E000F0DC4
S70520000000DA
